:10002600003C0808084878000024283030282400BE
:10003600003C424242423C00003C243C202020003E
:10004600003C424242463F00003C243C302824000B
:1000560000004141221408000081999999A966007F
:10006600007E040810207E000038101010103800A2
:100076000042E7BD99998100001824100824180051
:10008600182808FF087E281CD1AA84EA3F28E40223
:100096005151514A4A4A4444181C18181818183C19
:1000A6003C666630180C067E3C6660386060663CCE
:1000B60030383C3E367E30303C3C181818183C3CF4
:1000C60066FFFFFF7E3C18186666666666667E3CBF
:1000D60008087808080808FF18042224FF242424A6
:1000E6007849CE00FF8486FD3C42A5DB8199423CDF
:1000F6003C42A5DB8199423C082A2AFF14149671DA
:10010600087F2222241414FF08FF047C4444423151
:100116007E40407C7C40407E003C44444444443C19
:10012600003C02020202023C000404040404047CB3
:10013600004242424242423C007E02027E02027E6F
:10014600780404047C040404780404047C04040491
:10015600007E1818181818180040407E48484000BD
:10016600001014FE11FE1010945804F79191F70434
:100176003E2A2AFFAAAABE40094989FD0B0B090897
:10018600007C929292927C0000422418182442002D
:10019600007C929292927C0000422418182442001D
:1001A600007C929292927C00884E780FF88E884856
:1001B600828EF283E29E828082423E0B8A8A7A0295
:1001C6000000000000000000000000000000000029
:1001D6000020406080A0C0E0E4E8ECF0F4F8FCDC2D
:1001E600BC9C7C5C3C1C1814100C080425456585D9
:1001F600A5C5C9CDD1D5D9B99979593935312D2961
:100206004A6A8AAAAEB2B6967656524E6F8F9373E4
:100216006F8F93734A6A8AAAAEB2B6967656524ED4
:1002260025456585A5C5C9CDD1D5D9B99979593998
:1002360035312D290020406080A0C0E0E4E8ECF0D4
:10024600F4F8FCDCBC9C7C5C3C1C1814100C080408
:100256000020406080A0C0E0E4E8ECF0F4F8FCDCAC
:10026600BC9C7C5C3C1C1814100C080400010203A6
:100276000405061626364656666564636261605056
:1002860040302010FF89F59393F589FF0E1F3F7EBE
:100296007E3F1F0E183C7EFF18181818884E780FE0
:1002A600F88E8848828EF283E29E828082423E0BDE
:1002B6008A8A7A0200FF818181423C000000C3FFE6
:1002C600FFC30000010306FCFC0603010000C3FF98
:1002D600FFC300000E1F3F7E7E3F1F0E007FFF8084
:1002E60080FF7F000040404040407E00007E407E10
:1002F60040407E00003C222222223C0000000000FA
:1003060000000000003C624040613E000042424264
:1003160042423C00003C243838243C00007E407EAB
:1003260040407E0000000000000000000042427EC7
:10033600424242000042424242423C0000C264380D
:1003460010101000001818247E42810000626252CC
:100356004A464600003C62404E623E0000000000F5
:100366000000000000000000000000000000000087
:100376000000000000000000000000000000000077
:10038600000000000044447C4444440000444444CB
:100396004444380000824428101010000010282819
:1003A6007C44820000646454544C44000078C48049
:1003B6009CC47C0000101010100010003864063E2B
:1003C600666624183C66663C66662418303030182B
:1003D6000C04467E1826667860662418186446065D
:1003E6001C60627E0C0C7E686C2C3C1C78460606F3
:1003F6001C06463CFCC0603018C6C6783C18181867
:1004060018183818182466666666241844EE66229C
:100416003E223E0008F4442E946403007E10101021
:100426001C101000814218A5A5184281000018244E
:1004360024180000030706081020408007070F1C39
:10044600182040800F0F1F3F3C7860801F1F3F3FE2
:100456007F7C70803F3F3F7F7F7FF8C07F7F7F7FBD
:10046600FFFFFFF0FFFFFFFFFFFFFFFF0000003C65
:100476003C0000000000003C3C00000000000018AA
:100486001800000000000018180000000000001806
:100496001800000000000018180000000000003CD2
:1004A6003C0000000000003C3C000000000000187A
:1004B600180000000000003C3C0000000000187E10
:1004C6007E18000000003C7E7E3C000000187EFF87
:1004D600FF7E180000007EFFFF7E00000000006621
:1004E6006600000000000000000000000000001888
:1004F600180000000000003C3C0000000000006600
:10050600660000000000006666000000000000664D
:10051600660000000000006666000000000000663D
:10052600660000000000006666000000000000246F
:10053600240000000000007E7E00000000003CFF5A
:100546007E3C000000187EFFFF7E180000003CFE87
:10055600FE3C00000000006E66000000000000186F
:10056600100000000000000C000000000000000069
:1005760000000000000000222200000000000036FB
:10058600360000000000001C1C0000000000003EB9
:100596003E0000000000007F7F0000000000001CFD
:1005A6001C00000000000008080000000403070209
:1005B6000006010505000306010704020001030405
:1005C60007020605010705000402030601060400EA
:1005D60007050203050704020001060301060304DA
:1005E60005020007060701050402000302000301D5
:1005F60005070604050201000306070400070403B5
:1006060002060501040702060503010000010403B2
:10061600020506070306070201040005050201009C
:100626000706040301040002030507060402010588
:10063600060007030004070301050206010006077A
:10064600040503020600040207050103030102066E
:10065600070500040204010006050307060201055A
:10066600070403000100050302060704070100044E
:100676000205060306040100020507030206070039
:100686000305010406030702010405000700050629
:100696000103040205020304000701060203000722
:1006A600060401050103000405020706030402050A
:1006B60006000107040200060307050104010600FF
:1006C60007030205070600050104020306010302EB
:1006D60007000504020703060005010406050201DA
:1006E60000030704070100050406030201070302CD
:1006F60006000504000206070403050100050401BF
:1007060006030207000105040702030601040203AB
:10071600050706000207000506010304020106009C
:100726000405030706010504020703000400050289
:10073600010607030102000603070405050001027E
:100746000403070604020006070501030203070463
:100756000601000501050700030402060207060359
:10076600050100040405070002030106000507034E
:100776000201060406040507010003020106050737
:10078600000203040201050306040007000605042F
:100796000307000206040200030105070405070615
:1007A6000003010200030702010506040502040016
:1007B600010307020405030107000206000000000A
:1007C60000000000000000000080014000800000E2
:1007D6000000000000000000000000000000000013
:1007E600000000000000008001400220014000805F
:1007F60000000000000000000000000000000000F3
:100806000000000001C002200410041004100220A1
:1008160001C0000000000000000000000000000011
:10082600000003E00410080808080808080808087B
:10083600041003E0000000000000000000000000BB
:1008460007F0080810041004100410041004100423
:100856001004080807F000000000000000000FF870
:100866001004200220022002200220022002200280
:100876002002200210040FF8000000001FFC2002D6
:10088600400140014001400140014001400140015A
:1008960040014001400120021FFC000000003C3CDA
:1008A6003C3C00002030383C3C383020081422778D
:1008B6001414141CFFFFFFFFFFFFFFFF01020408D3
:1008C6001020408000010608106080000000010E24
:1008D600708000000000000FF0000000000000F033
:1008E6000F000000000080700E0100000080601004
:1008F6000806010080402010080402014020201054
:100906000804040220101010080808041010101023
:100916000808080808080808101010100408080835
:1009260010101020020404081020204001020408C0
:1009360010204080020408001020408004080010A7
:1009460020204080081010202040408010102020D9
:1009560020404080202040404080808040404040F1
:100966008080808080808080808080808080808081
:1009760040404040808000404040202080804040F1
:100986002020101080404020201010088040202099
:10099600101008048040201008080402804020102F
:1009A60008040201804020100C0201008040300C37
:1009B600020100008060180601000000C0300E0130
:1009C60000000000E01C030000000000F00F000023
:1009D60000000000FF000000000000000FF0000013
:1009E600000000000738C00000000000030C20C013
:1009F6000000000001020C30C000000001020408E3
:100A060030C00000010204081060800001020408E2
:100A16001020408001020408102020400102040832
:100A26000810202001020404080810100101020227
:100A36000404080801010102020204040101010183
:100A46000202020201010101010101010202020288
:100A56000101010104040202020101010808040463
:100A66000202010110100808040402012010000807
:100A760008040201402010080804020180402010EA
:100A86000804020100804020180402010000804092
:100A96003804020100000080601C02010000000012
:100AA60080700E010000000000C03C030000000042
:100AB6000000F00F00000000000000FF0000000032
:100AC60000000FF00000000000031CE00000000022
:100AD600030C30C000000001061820C0000001020F
:100AE6000C304080000102041820408001020408F6
:100AF60010204080010204081020408001020408F2
:100B060010204080010204081020408001020408E1
:100B160010204080010204081020408001020408D1
:100B260010204080010204081020408000010608C1
:100B360010608000000106081060800000010608B1
:100B460010608000000106081060800000010608A1
:100B56001060800000010608106080000001060891
:100B66001060800000010608106080000000010E81
:100B7600708000000000010E708000000000010E71
:100B8600708000000000010E708000000000010E61
:100B9600708000000000010E708000000000010E51
:100BA600708000000000010E708000000000000F41
:100BB600F00000000000000FF00000000000000F31
:100BC600F00000000000000FF00000000000000F21
:100BD600F00000000000000FF00000000000000F11
:100BE600F00000000000000FF00000000000000F01
:100BF60000F000000000000F00F000000000000FF1
:100C060000F000000000000F00F0000000000F00E0
:100C1600F000000000000F00F000000000000F00D0
:100C2600F000000000000F00F000000000000000CF
:100C3600000000000000000F00F000000000000FA0
:100C460000F0000000000F0FF0F0000000000F0F92
:100C5600F0F0000000000F00F000000000000F00A0
:100C6600F00000000000000000000000000000008E
:100C760000000000000000000000000000000F0F50
:100C8600F0F0000000000F0FF0F0000000000F0F62
:100C9600F0F0000000000F0FF0F000000000000070
:100CA600000000000000000000000000000000003E
:100CB60000000000000000000000000000001E1EF2
:100CC6007878000000001E1E7878000000001E1EC6
:100CD6007878000000001E1E7878000000000000F2
:100CE60000000000000000000000000000000000FE
:100CF60000000000000000000000000000003C3C76
:100D06003C3C000000003C3C3C3C000000003C3CFD
:100D16003C3C000000003C3C3C3C00000000000065
:100D260000000000000000000000000000000000BD
:100D36000000000000666600006666000066660049
:100D460000666600000000000000000000000000D1
:100D56000000000000666600006666000066660029
:100D6600006666000000000000000000C3C300002B
:100D76000000C3C3C3C300000000C3C300000000DB
:100D8600000000000000000000000000000000005D
:100D9600000000000000000000000000C3C30000C7
:100DA6000000C3C3C3C300000000C3C3C3C3000025
:100DB6000000C3C3C3C300000000C3C3000000009B
:100DC600000000000000000000000000000000001D
:100DD600000000000000000000000000C3C3000087
:100DE6000000C3C3C3C300000000C3C3060600005F
:100DF60000000606C6C600000000C6C6C0C0000049
:100E06000000C0C00000000000000000000000005C
:100E160000000000030300000000030363630000FA
:100E26000000636360600000000060600C0C00005E
:100E360000000C0C0C0C000000000C0CC0C00000E4
:100E46000000C0C0C0C000000000C0C00C0C000004
:100E5600000003030C0C0000000003033030000008
:100E6600000030303030000000003030181800002C
:100E760000001818181800000000181800000000DC
:100E860000000000C3C300000000C3C3C3C30000CA
:100E96000000C3C300000000000000001818000096
:100EA600000018181818000000001818303000004C
:100EB6000000303030300000000030300303000006
:100EC600000003030303000000000303C0C000008A
:100ED6000000C0C0C0C000000000C0C00C0C000074
:100EE60000000C0C0C0C000000000C0C60600000F4
:100EF600000060606363000000006363030300009A
:100F060000000303000000000000000000000000D5
:100F160000000000C0C000000000C0C0C6C600003F
:100F26000000C6C60606000000000606C3C3000091
:100F36000000C3C3C3C300000000C3C30000000019
:100F4600000000000000000000000000000000009B
:100F5600000000000000000000000000C3C3000005
:100F66000000C3C3C3C300000000C3C36063030023
:100F760000C0C6066063030000C0C606000000008D
:100F8600000000000000000000000000000000005B
:100F96000000000000000000000000006063030085
:100FA60000C0C6066063030000C0C60630300303F7
:100FB600C0C00C0C30300303C0C00C0C0000000095
:100FC600000000000000000000000000000000001B
:100FD60000000000000000000000000030300303A5
:100FE600C0C00C0C30300303C0C00C0C181800C372
:100FF600C3001818181800C3C30018180000000012
:1010060000000000000000000000000000000000DA
:10101600000000000000000000000000181800C3D7
:10102600C3001818181800C3C30018180C0CC0C049
:10103600030330300C0CC0C0030330300000000046
:10104600000000000000000000000000000000009A
:101056000000000000000000000000000C0CC0C0F2
:10106600030330300C0CC0C00303303006C6C0008A
:101076000003636006C6C000000363600000000052
:10108600000000000000000000000000000000005A
:1010960000000000000000000000000006C6C000BE
:1010A6000003636006C6C000000363600000000022
:1010B6000000C3C3C3C300000000C3C3C3C3000012
:1010C600000000000000000000000000000000001A
:1010D60000000000000000000000C3C300C3C300FE
:1010E6000000C3C300C3C3000000000000000000EE
:1010F6000000C3C3000000000000C3C3C3C3000058
:1011060000000000C3C30000000000000000000053
:101116000000C3C3000000000000C3C30000C3C337
:10112600000000000000C3C3000000000000000033
:101136000000C3C3000000000000C3C3000000009D
:1011460000000000C3C300000000C3C3C3C3000007
:101156000000C3C30000000000000000000000C340
:10116600C3000000000000C3C30000000000000030
:101176000000C3C3000000000000C3C3000000005D
:101186000000C3C3000000000000C3C3C3C30000C7
:1011960000000000C3C300000000000000000000C3
:1011A600C3C3000000000000C3C30000000000002D
:1011B6000000C3C3000000000000C3C3000000001D
:1011C6000000C3C3000000000000C3C3000000000D
:1011D60000000000C3C3000000000000C3C30000FD
:1011E60000C3C3000000000000C3C30000000000ED
:1011F6000000C3C3000000000000C3C300000000DD
:101206000000C3C3000000000000C3C300000000CC
:10121600000000000000000000000000C3C3000042
:101226000000C3C3C3C300000000C3C30000000026
:101236000000C3C3000000000000C3C3000000009C
:101246000000C3C3000000000000C3C3000000008C
:1012560000000000000000000000C3C300C3C3007C
:101266000000C3C300C3C30000000000000000006C
:101276000000C3C3000000000000C3C3000000005C
:101286000000C3C3000000000000C3C3000000004C
:101296000000C3C3000000000000C3C30000C3C3B6
:1012A600000000000000C3C30000000000000000B2
:1012B6000000C3C3000000000000C3C3000000001C
:1012C6000000C3C3000000000000C3C3000000000C
:1012D6000000C3C3000000000000C3C3000000C339
:1012E600C3000000000000C3C300000000000000AF
:1012F6000000C3C3000000000000C3C300000000DC
:101306000000C3C3000000000000C3C300000000CB
:101316000000C3C3000000000000C3C300000000BB
:10132600C3C3000000000000C3C3000000000000AB
:101336000000C3C3000000000000C3C3000000009B
:101346000000C3C3000000000000C3C3000000008B
:101356000000C3C3000000000000C3C3000000007B
:1013660000C3C3000000000000C3C300000000006B
:101376000000C3C3000000000000C3C3000000005B
:101386000000C3C3000000000000C3C3000000004B
:101396000000C3C3000000000000C3C3000000003B
:1013A6000000C3C3000000000000C3C3000000002B
:1013B6000000FFFF000000000000FFFF000000002B
:1013C6000000C3C3000000000000C3C3000000000B
:1013D6000000C3C3000000000000C3C300000000FB
:1013E6000000FFFF000000000000FFFF00000000FB
:1013F6000000FFFF000000000000FFFF00000000EB
:1014060000000000000000000000000000000000D6
:1014160000000000000000000000000000000000C6
:101426000000FFFF000000000000FFFF00000000BA
:1014360000C0FF3F0000000000C0FF3F00000000AA
:101446000000000000000000000000000000000096
:101456000000000000000000000000000000000086
:1014660000C0FF3F0000000000C0FF3F000000007A
:10147600C0C03F3F00000000C0C03F3F000000006A
:101486000000000000000000000000000000000056
:101496000000000000000000000000000000000046
:1014A600C0C03F3F00000000C0C03F3F000000C07A
:1014B600C0003F3F000000C0C0003F3F00000000EA
:1014C6000000000000000000000000000000000016
:1014D600000000000000000000000000000000C046
:1014E600C0003F3F000000C0C0003F3F0000C0C03A
:1014F60000003F3F0000C0C000003F3F000000006A
:1015060000000000000000000000000000000000D5
:101516000000000000000000000000000000C0C045
:1015260000003F3F0000C0C000003F3F00C0C000B9
:1015360000006F6F00C0C00000006F6F0000000069
:101546000000000000000000000000000000000095
:1015560000000000000000000000000000C0C00005
:1015660000006F6F00C0C00000006F6FC0C00000B9
:101576000000CFCFC0C000000000CFCF00000000A9
:101586000000000000000000000000000000000055
:10159600000000000000000000000000C0C00000C5
:1015A6000000CFCFC0C000000000CFCF60600000B9
:1015B60000C0CF0F6060000000C0CF0F0000000029
:1015C6000000000000000000000000000000000015
:1015D6000000000000000000000000006060000045
:1015E60000C0CF0F6060000000C0CF0F18180000C9
:1015F600C0C00F0F18180000C0C00F0F0000000079
:1016060000000000000000000000000000000000D4
:101616000000000000000000000000001818000094
:10162600C0C00F0F18180000C0C00F0F181800C058
:10163600C0000F0F181800C0C0000F0F00000000F8
:101646000000000000000000000000000000000094
:10165600000000000000000000000000181800C094
:10166600C0000F0F181800C0C0000F0F0C0CC0C030
:1016760000001B1B0C0CC0C000001B1B0000000060
:101686000000000000000000000000000000000054
:101696000000000000000000000000000C0CC0C0AC
:1016A60000001B1B0C0CC0C000001B1B06C6C000A4
:1016B6000000333306C6C0000000333300000000CC
:1016C6000000000000000000000000000000000014
:1016D60000000000000000000000000006C6C00078
:1016E6000000333306C6C0000000333303C3C00016
:1016F6000000636303C3C0000000636300000000D2
:1017060000000000000000000000000000000000D3
:1017160000000000000000000000000003C3C0003D
:101726000000636303C3C00000006363C3C300001B
:101736000000C3C3C3C300000000C3C30000000011
:101746000000000000000000000000000000000093
:10175600000000000000000000000000C3C30000FD
:101766000000C3C3C3C300000000C3C3C6C6000055
:101776000000C6C6C6C600000000C6C600000000BF
:101786000000000000000000000000000000000053
:101796000000000003030000000003036363000071
:1017A600000063636060000000006060CCCC000055
:1017B6000000CCCCCCCC00000000CCCC000000005B
:1017C600000000000000000000000000030300000D
:1017D6000000030303030000000003033030000091
:1017E600000030303030000000003030D8D8000023
:1017F6000000D8D8D8D800000000D8D800000000D3
:1018060000000000030300000000030303030000C0
:10181600000003030000000000000000181800008C
:10182600000018181818000000001818F0F0000042
:101836000000F0F0F0F000000000F0F003030000FC
:101846000000030303030000000003030000000080
:101856000000000000000000000000000C0C00006A
:1018660000000C0C0C0C000000000C0CF0F000004A
:101876000000F0F0F3F300000000F3F303030000B0
:10188600000003030000000000000000000000004C
:101896000000000000000000000000000606000036
:1018A600000006060606000000000606F3F3000028
:1018B6000000F3F3F3F300000000F3F3030300006A
:1018C600000003030000000000000000000000000C
:1018D60000000000000000000000000003030000FC
:1018E600000003030303000000000303F6F60000F4
:1018F6000000F6F6F6F600000000F6F6000000001E
:1019060000000000000000000000000000000000D1
:1019160000000000030300000000030303030000AF
:10192600000003030000000000000000FCFC0000B3
:101936000000FCFCFCFC00000000FCFC00000000B9
:10194600000000000000000000000000030300008B
:10195600000003030303000000000303000000006F
:10196600000000000000000000000000FCFC000079
:101976000000FCFCFCFC00000000FCFC0000000079
:10198600000000000303000000000303030300003F
:10199600000003030000000000000000000000003B
:1019A600000000000000000000000000FCFC000039
:1019B6000000FCFCFCFC00000000FCFC0303000033
:1019C60000000303030300000000030300000000FF
:1019D6000000000000000000000000000000000001
:1019E600000000000000000000000000FCFC0000F9
:1019F6000000FCFCFFFF00000000FFFF03030000E7
:101A060000000303000000000000000000000000CA
:101A160000000000000000000000000000000000C0
:101A2600000000000000000000000000FFFF0000B2
:101A36000000FFFFFFFF00000000FFFF00000000A6
:101A46000000000000000000000000000000000090
:101A56000000000000000000000000000000000080
:101A6600000000000000000000000000FFFFC3C3EC
:101A7600C3C3FFFFFFFFC3C3C3C3FFFF00000000D4
:101A86000000000000000000000000000000000050
:101A96000000000000000000000000000000000040
:101AA600000000000000000000000000C3C3C3C324
:101AB600C3C3C3C3C3C3C3C3C3C3C3C300000000FC
:101AC6000000000000000000000000000000000010
:101AD6000000000000000000000000000000000000
:101AE6000000000000000000000000000000C3C36A
:101AF600C3C3C3C3FFFFC3C3C3C3C3C3C3C30000BE
:101B060000000000000000000000000000000000CF
:101B160000000000000000000000000000000000BF
:101B26000000000000000000000000000000C3C329
:101B3600C3C3C3C30000C3C3C3C3C3C3C3C300007B
:101B460000000000C3C30000000000000000000009
:101B5600000000000000000000000000000000007F
:101B66000000000000000000000000000000C3C3E9
:101B7600C3C3C3C30000C3C3C3C3C3C300000000C1
:101B860000000000C3C3000000000000C3C3000043
:101B9600000000000000000000000000000000003F
:101BA6000000000000000000000000000000C3C3A9
:101BB600C3C3C3C30000C3C3C3C3C3C30000000081
:101BC600000000000000000000000000C3C3000089
:101BD60000000000C3C30000000000000000000079
:101BE60000000000000000000000000000C3C30069
:101BF600C3C3C3C300C3C300C3C3C3C30000000041
:101C060000000000000000000000000000000000CE
:101C160000000000C3C3000000000000C3C30000B2
:101C2600000000000000000000000000C3C3000028
:101C3600C3C3C3C3C3C30000C3C3C3C30000000000
:101C4600000000000000000000000000000000008E
:101C5600000000000000000000000000C3C30000F8
:101C660000000000C3C300000000000000000000E8
:101C7600C3C3C3C3C3C30000C3C3C3C3C3C300003A
:101C8600000000000000000000000000000000004E
:101C960000000000000000000000000000C3C300B8
:101CA6000000000000C3C3000000000000000000A8
:101CB600C3C3C3C300000000C3C3C3C3C3C3000080
:101CC60000000000C3C30000000000000000000088
:101CD6000000000000000000000000000000C3C378
:101CE600000000000000C3C300000000000000C3A5
:101CF600C300C3C3000000C3C300C3C30000000089
:101D060000000000C3C3000000000000C3C30000C1
:101D1600000000000000000000000000000000C3FA
:101D2600C3000000000000C3C30000000000C3C3DE
:101D36000000C3C30000C3C30000C3C3000000000B
:101D4600000000000000000000000000C3C3000007
:101D560000000000C3C300000000000000000000F7
:101D6600C3C3000000000000C3C3000000C3C300DB
:101D76000000C3C300C3C3000000C3C300000000CB
:101D8600000000000000000000000000000000004D
:101D960000000000C3C3000000000000C3C3000031
:101DA60000C3C3000000000000C3C300C3C300009B
:101DB6000000C3C3C3C300000000C3C3000000008B
:101DC600000000000000000000000000000000000D
:101DD600000000000000000000000000C3C3000077
:101DE6000000C3C3C3C300000000C3C3000000005B
:101DF60000C3C300C3C3000000C3C300C3C30000C5
:101E060000000000000000000000000000000000CC
:101E160000000000000000000000C3C300C3C300B0
:101E26000000C3C300C3C3000000000000000000A0
:101E3600C3C3000000000000C3C30000C3C300000A
:101E460000000000C3C30000000000000000000006
:101E56000000C3C3000000000000C3C30000C3C3EA
:101E6600000000000000C3C300000000000000C323
:101E7600C3000000000000C3C30000000000000013
:101E860000000000C3C300000000C3C3C3C30000BA
:101E96000000C3C30000000000000000000000C3F3
:101EA600C3000000000000C3C30000000000C3C35D
:101EB600000000000000C3C3000000000000000096
:101EC6000000C3C3000000000000C3C3C3C300007A
:101ED60000000000C3C30000000000000000000076
:101EE600C3C3000000000000C3C3000000C3C3005A
:101EF6000000000000C3C3000000C3C300000000D0
:101F06000000C3C300000000000000000000000045
:101F160000000000C3C3000000000000C3C30000AF
:101F260000C3C3000000000000C3C300000000009F
:101F360000000000000018000000000000183C1817
:101F46000000000000183C1800000000003C7E3C29
:101F56001800000000187E18000000000000240091
:101F66000000000000000000000000000000001853
:101F7600180000000000003C3C0000000000187E35
:101F86007E18000000003C7E7E3C000000187EFFAC
:101F9600FF7E180000007EFFFF7E00000000006646
:101FA60066000000000000000000000000000000C5
:101FB600000000000000000000000000000000001B
:101FC600000000000000000000000000000000000B
:101FD60000000000000000000000000000000000FB
:101FE60000000000010000000000000000000000EA
:101FF60000000000000000000000000000000000DB
:1020060000000000000000000000000000000000CA
:1020160000000000000000000000000001000000B9
:1020260000000000030000000000000000000000A7
:10203600000000000000000000000000000000009A
:10204600000000000000000000000000000000008A
:102056000000000001000000000000000100000078
:102066000000000007000000000000000000000063
:10207600000000000000000000000000000000005A
:102086000000000000000000000000000100000049
:102096000000000001000000000000000100000038
:1020A600000000000F00000000000000000000001B
:1020B600000000000000000000000000000000001A
:1020C6000000000000000000000000000101000008
:1020D60000000000010000000000000001000000F8
:1020E600000000001F0000000000000000000000CB
:1020F60000000000000000000000000000000000DA
:1021060000000000000000000000000001010100C6
:1021160000000000010000000000000001000000B7
:10212600000000003F00000000000000000000006A
:102136000000000000000000000000000000000099
:102146000000000000000100000000000101010085
:102156000000000001000000000000000100000077
:10216600000000007F0000000000000000000000EA
:102176000000000000000000000000000000010058
:102186000000000000000100000000000101010045
:102196000000000001000000000000000100000037
:1021A60000000000FF00000000000000000000002A
:1021B6000000000000000000000000000000010117
:1021C6000000000000000100000000000101010005
:1021D60000000000010000000000000001000000F7
:1021E60000000000FF80000000000000000000006A
:1021F60000000000000000000000000000000101D7
:1022060001000000000001000000000001010100C3
:1022160000000000010000000000000001000000B6
:1022260000000000FF8080000000000000000000A9
:102236000000000000000000000000000000010196
:102246000101000000000100000000000101010082
:102256000000000001000000000000000100000076
:1022660000000000FF8080800000000000000000E9
:102276000000000000000000000100000000010155
:102286000101000000000100000000000101010042
:1022960000000000010000000000000001000080B6
:1022A60000000000FF8080800000000000000000A9
:1022B6000001000000000000000100000000010114
:1022C6000101000000000100000000000101010002
:1022D60000000000010000800000000001000080F6
:1022E60000000000FF808080000000000000000069
:1022F60000010100000000000001000000000101D3
:1023060001010000000001000000000001010100C1
:102316000000000001000080800000000100008035
:1023260000000000FF808080000000000000000028
:102336000001010100000000000100000000010191
:102346000101000000000100000000000101010081
:102356000000000001000080808000000100008075
:1023660000000000FF8080800000000000000000E8
:10237600000101030000000000010000000001014F
:102386000101000000000100000000000101010041
:1023960000800000010000808080000001000080B5
:1023A60000000000FF8080800000000000000000A8
:1023B600000101070000000000010000000001010B
:1023C6000101000000000100008000000101010081
:1023D6000080000001000080808000000100008075
:1023E60000000000FF808080000000000000000068
:1023F6000001010F000000000001000000000101C3
:1024060001010000000001000080800001010100C0
:102416000080000001000080808000000100008034
:1024260000000000FF808080000000000000000027
:102436000001011F00000000000100000000010172
:102446000101800000000100008080000101010000
:1024560000800000010000808080000001000080F4
:1024660000000000FF8080800000000000000000E7
:102476000001013F00000000000180000000010192
:1024860001018000000001000080800001010100C0
:1024960000800000010000808080000001000080B4
:1024A60000000000FF8080800000000000000000A7
:1024B6000001817F00000000000180000000010192
:1024C6000101800000000100008080000101010080
:1024D6000080000001000080808000000100008074
:1024E60000000000FF808080000000000000000067
:1024F600000181FF000000000001800000000101D2
:10250600010180000000010000808000010101003F
:102516000080000001000080808000000100008033
:1025260000000000FF808080000000003864063E46
:10253600666624183C66663C666624183030301899
:102546000C04467E182666786066241818644606CB
:102556001C60627E0C0C7E686C2C3C1C7846060661
:102566001C06463CFCC0603018C6C6783C181818D5
:102576001818381818246666666624180084010040
:10258600000102448400240804208000002000008A
:102596002000400000040040000008004000100039
:1025A60000040411004100008000400000000024E7
:1025B6000118000022100200400002000000000086
:1025C6000000000000000000000000000000000005
:1025D60000000000000000000000000000000000F5
:1025E60000000000000000000000000000000000E5
:1025F60000000000000000000000000000000000D5
:102A7600000000000000000000000000000102232A
:102A860005060706052302010000000000000000FD
:102A96000000000000000000000000000000000030
:102AA6000000000000000000000000000000000020
:102AB6000000000000000000000000000000000010
:102AC6000000000000000000000000000000000000
:102AD60000000000000000000000000000000000F0
:102AE60000000000000000000000000000000000E0
:102AF60000000000000000000000000000000000D0
:102B060000000000000000000000000000000000BF
:102B160000000000000000000000000000000000AF
:102B2600000000000000000000000000000000009F
:102B3600000000000000000000000000000000008F
:102B4600000000000000000000000000000000007F
:102B5600000000000000000000000000000000006F
:102B6600000000000000000000000000000000005F
:102B7600000000000000000000000000000000004F
:102B860000000000000000000081818181818181B8
:102B96009900818181818181A50000818181818166
:102BA600C300000081818181810000000081818154
:102BB6008100000000008181990000000000008172
:102BC600E7FFC3A58181A5C3FF0000000000000048
:102BD60000000000000000000000000000000000EF
:102BE60000000000000000000000000000000000DF
:102BF60000000000000000000000000000000000CF
:102C060000000000000000000000000000000000BE
:102C160000000000000000000000000000000000AE
:102C2600000000000000000000000000000000009E
:102C3600000000000000000000000000000000008E
:102C4600000000000000000000000000000000007E
:102C5600000000000000000000000000000000006E
:102C6600000000000000000000000000000000005E
:102C7600000000000000000000000000000000004E
:102C860000000000000000000018181818180018AE
:102C96001818244281819966008181C3425A5A24B8
:102CA60024181818181800181863666C78786C665B
:102CB600637E7E666666666666000000000000004B
:102CC60000000000000000000000000000000000FE
:102CD60000000000000000000000000000000000EE
:102CE60000000000000000000000000000000000DE
:102CF60000000000000000000000000000000000CE
:092D0600000000000000000000C4
:10B7DB00C18401350042015202BC017D00017E0093
:10B7EB00013100017900012700013600013700010A
:10B7FB0038000124000130004201D501904201DCE8
:10B80B0001F44200420000C106012900C10DC10E26
:10B81B00012A00C18B012D02012B02012F020125F0
:10B82B0002C18C012600012800C105C101C1030121
:10B83B002C00013300013200012E00013400017B8A
:10B84B0000012200012300017C00017A00410194D8
:10B85B0000C187C188C189C18A41010F0041011014
:10B86B00004101110041004100C100C1024101D75B
:10B87B00004101D8004101D9004101DA004101DB4F
:05B88B00004100000077
:10CBBB007401A805088002C333D8FC5F60047E01B2
:06CBCB008002E4FEAF064B
:01CBD1002241
:03CB8700A3E0FF29
:10CB8A00EF75F00A84FE75F00AA4FDC3EF9DC39405
:06CB9A000540010EAF068C
:01CBA0002272
:0DCC6C00C3EF648094805004EFF404FF22B5
:0BC6AD00900248EBF0A3EAF0A3E9F0D4
:10C6B800A3E0FBA3E0FAA3E0F912855AFF90024831
:10C6C800E0FBA3E0FAA3E0F912855AFED39F4013DA
:10C6D800EF1285A090024BE0FBA3E0FAA3E0F9EE8D
:03C6E8001285A018
:01C6EB00222C
:0FCC4100EFC39D5002AF05EFC39B5002AF03221C
:04C8EA00D28CE4FF09
:10C8EE00E4FEE4FDEE75F008A424DEF582E43401E6
:10C8FE00F583E5822DF582E43583F583EFF00DEDBA
:08C90E00B408E10EEEB408DAF2
:01C9160022FE
:10C6EC00E4FEEF75F008A42496F582E43400F5839B
:10C6FC00E5822EF582E43583F583E493FCEE75F048
:10C70C0008A424DEF582E43401F583E5822DF5825C
:0CC71C00E43583F583ECF00EEEB408C6A3
:01C7280022EE
:08BF1100EF24FEFF7B01E4FDBB
:02BF1900AE0375
:10BF1B00EFFB3395E0FAC3EB9480EA648094805096
:10BF2B00047C0180027C00C3EF6480948040047B1E
:10BF3B000180027B00EC5B6042ED600AC3747F9F63
:10BF4B00900231F08005900231EFF0900231E0F970
:10BF5B009001D693FDC4135407FCED13135407FD46
:10BF6B00E9935403FBD3EF648094BF400474079BA5
:0BBF7B00FBAF04900259EEF012C14031
:01BF86002298
:10C72900E4FEEF75F008A424D6F582E43400F5831D
:10C73900E5822EF582E43583F583E493FCEE75F00A
:10C7490008A424DEF582E43401F583E5822DF5821F
:0CC75900E43583F583ECF00EEEB408C666
:01C7650022B1
:10554D009002427404F0A3F0900233A3E0049002A1
:0F555D0044F0A37401F0E4A3F07B077D037F0308
:0B556C0090023FEFF0A3EDF0A3EBF086
:10557700E4900247F07B0190024B04F0A37402F021
:10558700A37442F07A02793F12C6AD90024B7401C0
:10559700F0A37402F0A37444F07B017A02794112FC
:1055A700C6AD90024B7401F0A37402F0A37443F0EC
:1055B7007B017A02794012C6AD90023FE0FF90026C
:1055C70042E0FEEFD39E5018900247E0FE7401A818
:1055D70007088002C333D8FC4E900247F00F80DEE5
:1055E700900246E0FE7004A3E0F4F0900245E070FC
:1055F700030256A0EE6051900240E0FF900243E0A4
:10560700FEEFD39E40030259CE900241E0FC900288
:1056170044E0FEECD39E502DEC75F008A424DEF593
:1056270082E43401F583E5822FF582E43583F5833F
:10563700C083C082E0FE900247E0FDEE4DD082D0ED
:1056470083F00C80C90F80B4900240E0FF900243C2
:10565700E0FEEFD39E40030259CE900241E0FC905A
:105667000244E0FEECD39E502DEC75F008A424DE36
:10567700F582E43401F583E5822FF582E43583F57D
:1056870083C083C082E0FE900247E0FDEE5DD082DA
:10569700D083F00C80C90F80B4900246E09002409E
:1056A700700302576BE0FEA3E075F008A424DEF553
:1056B70082E43401F583E5822EF582E43583F583B0
:1056C700C083C082E0FE900247E0FDEE4DD082D05D
:1056D70083F0900240E0FE900244E075F008A424B5
:1056E700DEF582E43401F583E5822EF582E4358325
:1056F700F583C083C082E0FE900247E0FDEE4DD007
:1057070082D083F0900243E0FE900241E075F008FA
:10571700A424DEF582E43401F583E5822EF582E4E4
:105727003583F583C083C082E0FE900247E0FDEE3B
:105737004DD082D083F0900243E0FEA3E075F008DD
:10574700A424DEF582E43401F583E5822EF582E4B4
:105757003583F583C083C082E0FE900247E0FDEE0B
:105767004D025827E0FEA3E075F008A424DEF58279
:10577700E43401F583E5822EF582E43583F583C0B1
:1057870083C082E0FE900247E0FDEE5DD082D083C9
:10579700F0900240E0FE900244E075F008A424DE99
:1057A700F582E43401F583E5822EF582E43583F54D
:1057B70083C083C082E0FE900247E0FDEE5DD082A9
:1057C700D083F0900243E0FE900241E075F008A418
:1057D70024DEF582E43401F583E5822EF582E43593
:1057E70083F583C083C082E0FE900247E0FDEE5D53
:1057F700D082D083F0900243E0FEA3E075F008A4C6
:1058070024DEF582E43401F583E5822EF582E43562
:1058170083F583C083C082E0FE900247E0FDEE5D22
:10582700D082D083F0900242E0FE7401A80608807F
:1058370002C333D8FCFE90023FE0FD7401A80508BF
:105847008002C333D8FC4E900247F0900246E0FE38
:105857007004A3E0F4F0EE700302591A900240E0DE
:10586700FC900243E0FEECD39E504B900241E0FFD8
:10587700900244E0FEEFD39E502DEF75F008A4246C
:10588700DEF582E43401F583E5822CF582E4358385
:10589700F583C083C082E0FE900247E0FDEE4DD065
:1058A70082D083F00F80C9900240E0FE900243E06F
:1058B700C39E2CFC80AB900241E0FC900244E0FECA
:1058C700ECD39E40030259CE900240E0FF90024382
:1058D700E0FEEFD39E502DEC75F008A424DEF58290
:1058E700E43401F583E5822FF582E43583F583C03F
:1058F70083C082E0FE900247E0FDEE4DD082D08368
:10590700F00F80C9900241E0FE900244E0C39E2C54
:10591700FC80A8900240E0FC900243E0FEECD39E9E
:10592700504B900241E0FF900244E0FEEFD39E50BF
:105937002DEF75F008A424DEF582E43401F583E544
:10594700822CF582E43583F583C083C082E0FE9024
:105957000247E0FDEE5DD082D083F00F80C9900250
:1059670040E0FE900243E0C39E2CFC80AB900241D6
:10597700E0FC900244E0FEECD39E504B900240E0E6
:10598700FF900243E0FEEFD39E502DEC75F008A484
:1059970024DEF582E43401F583E5822FF582E435D0
:1059A70083F583C083C082E0FE900247E0FDEE5D91
:1059B700D082D083F00F80C9900241E0FE9002446C
:0759C700E0C39E2CFC80AB45
:0159CE0022B6
:0BC76600900236EFF0A3EDF0A3EBF023
:10C77100E4A3F0900239E0FDC394085023900236FF
:10C78100E0FF12CBBB900259EFF0900237E0FFA31C
:10C79100E0FDA3E0FB12C140900239E004F080D338
:01C7A1002275
:10B9F500900235EDF0900234EFF0C36480948040FE
:10BA0500047F0180027F00900234E0FEC3648094CD
:10BA15008850047D0180027D00ED5F600F90023546
:10BA2500E0FFC374079EFBE4FD12C766900234E095
:10BA3500FFC36480948840047E0180027E00C3EFCA
:10BA45006480949050047F0180027F00EF5E601156
:10BA5500900235E0FF900234E024F8FDE4FB12C7C4
:10BA650066900234E0FFC36480949040047E0180B8
:10BA7500027E00C3EF6480949850047F0180027FAA
:10BA850000EF5E6011900235E0FF900234E024F093
:07BA9500FB7D0712C76622CA
:08BE9500900230EEF0A3EFF083
:10BE9D009002337417F0900233E0D3648094104015
:10BEAD0062E4900232F0900232E0FFC3947050379A
:10BEBD00A3E02FFFC36480948040047E0180027E46
:10BECD0000C3EF6480949850047D0180027D00EDE5
:10BEDD005E600C900232E090015E93FD12B9F59018
:10BEED000232E004F080BF900230E0FEA3E0FF12CA
:10BEFD00C946E52BB40104E4F52B22900233E0147E
:03BF0D00F080932E
:01BF1000220E
:0BA67A00900231EFF0A3ECF0A3EDF034
:10A68500E4900236F0900234F0900234E0FFC39477
:10A6950008400302A7ADEFC394075019EF04FF90DC
:10A6A5000242F0A37407F0A3F0A37401F0A3F0E451
:10A6B500FBFD12A2F7900236E0FF900242F0A37470
:10A6C50007F0A3F0A37401F0E4A3F0FBFD12A2F7D9
:10A6D500E4900235F0900234E004900236F0E4FC98
:10A6E500900234E0FEECD39E5017AF047401A80726
:10A6F500088002C333D8FCFE900235E04EF00C8092
:10A70500DFE4FFEF75F008A424E1F582E43401F5F8
:10A7150083C083C082E0FE900231E075F008A42476
:10A7250096F582E43400F583E5822FF582E43583DE
:10A73500F583E493FD900235E0FCED5CFDEE4DD034
:10A7450082D083F0EF75F008A424E2F582E43401A9
:10A75500F583C083C082E0FE900231E075F008A465
:10A765002496F582E43400F583E5822FF582E435FD
:10A7750083F583E493FD900235E0FCED5CFDEE4D41
:10A78500D082D083F00FEF6408600302A70890021F
:10A7950032E0FEA3E0FF12C946E52B640160099093
:08A7A5000234E004F002A68E6C
:01A7AD002289
:0BA54300900231EFF0A3ECF0A3EDF06C
:10A54E00E4900236F0900234F0900234E0FFC394AF
:10A55E0008400302A679EFC394075019EF04FF9049
:10A56E000242F0A37407F0A3F0A37401F0A3F0E489
:10A57E00FBFD12A2F7900236E0FF900242F0A374A8
:10A58E0007F0A3F0A37401F0E4A3F0FBFD12A2F711
:10A59E00E4900235F0900234E004900236F0E4FCD0
:10A5AE00900234E0FEECD39E5017AF047401A8075E
:10A5BE00088002C333D8FCFE900235E04EF00C80CA
:10A5CE00DFE4FFEF75F008A424E1F582E43401F531
:10A5DE0083C083C082E0FE900231E075F008A424AF
:10A5EE0016F582E43401F583E5822FF582E4358396
:10A5FE00F583E493FD900235E0FCED5CFDEE4DD06D
:10A60E0082D083F0EF75F008A424E2F582E43401E1
:10A61E00F583C083C082E0FE900231E075F008A49D
:10A62E002416F582E43401F583E5822FF582E435B4
:10A63E0083F583E493FD900235E0FCED5CFDEE4D79
:10A64E00D082D083F00FEF6408600302A5D1900290
:10A65E0032E0FEA3E0FF12C946E52B6401600C2038
:0BA66E000209900234E004F002A5573E
:01A6790022BE
:10C91700E4FFE4FEEF75F008A424DEF582E43401B9
:10C92700F583E5822EF582E43583F583E025E0F093
:0AC937000EEEB408DF0FEFB408D8CD
:01C9410022D3
:049798007BFF7D0ACC
:0E979C00900272EBF0A3EAF0A3E9F0A3EDF067
:1097AA0078767C027D017BFF7A2579C27E007F4034
:1097BA00128534E49002B6F0900272E0FBA3E0FA5C
:1097CA00A3E0F99002B6E0FFFD3395E08D82F583C0
:1097DA00128573FDEF3395E0FEEF7803C333CE3382
:1097EA00CED8F92476F58274023EF583EDF0900224
:1097FA00B6E004F0E0B408C0E57E640170030299A3
:10980A00247A02797690027512868E12C9429002E3
:10981A00B67401F0E49002B7F09002B7E0FFC364B7
:10982A00809488503FEF3395E0FEEF7803C333CE40
:10983A0033CED8F9FF9002B6E0FD3395E0FCEF2D68
:10984A00FFEE3CFE74752FF58274023EF583E0FD4F
:10985A0074762FF58274023EF583EDF09002B7E03C
:10986A0004F080B5E57E640160287B017A0279768E
:10987A00900275E0FD12869212C942E52B640170CE
:10988A00030299249002B6E004F0E0C3648094884D
:10989A004082E49002B6F0E49002B7F09002B7E09A
:1098AA00FFC3648094885033EF3395E0FEEF78036A
:1098BA00C333CE33CED8F9FF9002B6E0FD3395E03C
:1098CA00FCEF2DFFEE3CFE74762FF58274023EF516
:1098DA0083E4F09002B7E004F080C1E57E640160A1
:1098EA00257B017A027976900275E0FD1286921242
:1098FA00C942E52B640160229002B6E004F0E0C39D
:10990A00648094874091E57E6401600E7B017A024F
:0A991A0079767D1712869212C94279
:019924002220
:10C96D00E4FEFDC374079DFCEFA804088002C31309
:10C97D00D8FC30E00D7401A805088002C333D8FC43
:09C98D004EFE0DEDB408DCAF060E
:01C99600227E
:0EB297009002A2EBF0A3EAF0A3E9F0A3EDF021
:10B2A500E49002A9F09002A9E0FFC364809488505D
:10B2B5002C9002A8E05401FE9002A2E0FBA3E0FA64
:10B2C500A3E0F9EFFD3395E08D82F583EE1285B2AB
:10B2D5009002A8E0C313F0A3E004F080C89002A296
:10B2E500E0FBA3E0FAA3E02407F9E43AFA12855A51
:10B2F500FF9002A7E0FE25E04F1285A09002A2E094
:10B30500FBA3E0FAA3E02406F9E43AFA12855AFF12
:10B31500EE54804F1285A0E49002A9F09002A9E0B6
:10B32500FFFD3395E0FCC374059DFDE49CFC900294
:10B33500A2E0FBA3E0FAA3E02DF9EA3CFA12855A54
:10B34500FEC374079FFF9002A6E0FDA807088002D0
:10B35500C333D8FC54804E1285A09002A9E004F0B6
:10B36500E0B406B89002A5E0FF12C96DEFF09002B7
:10B37500A2E0FBA3E0FAA3E0F912855AFF9002A52B
:09B38500E0C313547E4F0285A0C1
:0E6DEF00900230EBF0A3EAF0A3E9F0A3EDF080
:106DFD00783A7C027D017BFF7A2679027E007F4006
:106E0D00128534E4900237F0900237E0FFC36480BE
:106E1D009488503DEF3395E0FE747A2FF58274021D
:106E2D003EF583E4F074822FF58274023EF583E41F
:106E3D00F0748A2FF58274023EF583E4F074922F7C
:106E4D00F58274023EF583E4F0900237E004F080A1
:106E5D00B790023574FFF5F012867145F07003029C
:106E6D007099E4900238F0900233E0FF900238E020
:106E7D00FEC3EF6480F8EE64809850D5A37407F0DC
:106E8D00900239E0FDC3648094804057900238E051
:106E9D00FF3395E0FEEF7803C333CE33CED8F9FF41
:106EAD00ED3395E0FCEF2DFFEE3CFE900230E0FB64
:106EBD00A3E0FAA3E0F98F828E83128573FF90020F
:106ECD0039E0FD3395E0FCC374079DFDE49CFC7433
:106EDD009A2DF58274023CF583EFF0900239E0149F
:106EED00F0809DE4900239F0E4900237F090023783
:106EFD00E0FFC3648094884003027068E0FEFD33B8
:106F0D0095E0FC747A2DF58274023CF583E025E062
:106F1D00FB74822DF58274023CF583E0C4131313C8
:106F2D0054014BFBEEFD3395E0FC747A2DF5827424
:106F3D00023CF583EBF074822DF58274023CF583EF
:106F4D00E025E0FE748A2DF58274023CF583E0C4E1
:106F5D0013131354014EFE74822DF58274023CF509
:106F6D0083EEF0748A2DF58274023CF583E025E002
:106F7D00FE74922DF58274023CF583E0C413131355
:106F8D0054014EFE748A2DF58274023CF583EEF0A9
:106F9D0074922DF58274023CF583E025E0FE749A1F
:106FAD002DF58274023CF583E0FBC41313135401D9
:106FBD004EFE74922DF58274023CF583EEF0749AB8
:106FCD002DF58274023CF583E025E0F0EF3395E07A
:106FDD00FEEF7803C333CE33CED8F9243AF97402D9
:106FED003EFA7B01C003C002747A2DF58274023C17
:106FFD00F583E0FD900237E0FFFB3395E0FA7482F4
:10700D002BF58274023AF583E09002A6F0EF3395EA
:10701D00E0FE748A2FF58274023EF583E09002A79C
:10702D00F0900237E03395E0FE74922FF5827402F2
:10703D003EF583E09002A8F0D002D00312B297E59E
:10704D002B64016055E52FB40102804B300103C262
:10705D000122900237E004F0026EFAE57E640160D1
:10706D00227B017A02793A900234E0FD1286921267
:10707D00C942900239E004F0E0C364809488500363
:10708D00026EF5900238E004F0026E74300103C216
:0A709D000122E52FB40103E4F52FF2
:0170A70022C6
:104BD8007A0279337B0190027D7401F0A3F07D02A3
:0B4BE800900279EBF0A3EAF0A3E9F0E3
:104BF300ED6003024C9090027DE0B40148E4900222
:104C03007FF090027FE0FFC3648094C040030250B2
:104C130098900279E0FBA3E0FAA3E0F9EF3395E083
:104C2300FEE92FF9EA3EFA12855AFF90027EE0FE72
:104C3300EFA806088002C333D8FC1285A090027F38
:104C4300E004F080BDE490027FF090027FE0FFC3B8
:104C5300648094C04003025098900279E0FBA3E083
:104C6300FAA3E0F9EF3395E0FEE92FF9EA3EFA12F1
:104C7300855AFF90027EE0FEEFA806088002C31368
:104C8300D8FC1285A090027FE004F080BDED6401A2
:104C93006003024E8F90027DE064016003024D9A2F
:104CA300900280F090027F7407F090027EE0FFA3F1
:104CB300E0FEC3EF6480F8EE648098407BEFFD3341
:104CC30095E0FCEEFF3395E0FEC3EF9DFDEE9CFC0B
:104CD300A3E0FF3395E0FEEF7803C333CE33CED8A2
:104CE300F92DFFEC3EFE900279E0FBA3E0FAA3E08E
:104CF300F98F828E83128573FD900280E0FF3395D6
:104D0300E0FEEF7803C333CE33CED8F9FF90027FB2
:104D1300E0FB3395E0FAEF2BFFEE3AFE900279E0E9
:104D2300FBA3E0FAA3E0F98F828E83ED1285B290A4
:104D3300027FE014F0024CADE490027FF090027E1B
:104D4300E0FFA3E0FDC3EF6480F8ED648098503882
:104D5300A3E0FF3395E0FEEF7803C333CE33CED821
:104D6300F9FFED3395E0FCEF2DFFEE3CFE90027969
:104D7300E0FBA3E0FAA3E0F98F828E83E41285B20D
:104D830090027FE004F080B5900280E004F0E064DC
:104D9300086003024CA722E4900280F0E490027FB3
:104DA300F090027EE0FFA3E0FEC3EF6480F8EE64C0
:104DB3008098507AEFFD3395E0FCEEFF3395E0FEEB
:104DC300EF2DFDEE3CFCA3E0FF3395E0FEEF78030F
:104DD300C333CE33CED8F92DFFEC3EFE900279E0FB
:104DE300FBA3E0FAA3E0F98F828E83128573FD9013
:104DF3000280E0FF3395E0FEEF7803C333CE33CE7A
:104E0300D8F9FF90027FE0FB3395E0FAEF2BFFEE3A
:104E13003AFE900279E0FBA3E0FAA3E0F98F828ED9
:104E230083ED1285B290027FE004F0024DA490025C
:104E33007EE0FFC374089FA3F090027FE0FDC3648C
:104E43008094885038A3E0FF3395E0FEEF7803C3E6
:104E530033CE33CED8F9FFED3395E0FCEF2DFFEEE3
:104E63003CFE900279E0FBA3E0FAA3E0F98F828E87
:104E730083E41285B290027FE004F080BC9002804C
:104E8300E004F0E064086003024D9F2290027DE09D
:104E930064016003024F9B900280F090027F7407CD
:104EA300F090027EE0FFA3E0FEC3EF6480F8EE64BF
:104EB30080985003024F39EFFD3395E0FCEEFF334A
:104EC30095E0FEC3EF9DFFEE9CFEEF7803C333CE68
:104ED30033CED8F9FF900280E0FD3395E0FCEF2D4F
:104EE300FFEE3CFE900279E0FBA3E0FAA3E0F98F2A
:104EF300828E83128573FD90027FE0FF3395E0FE7F
:104F0300EF7803C333CE33CED8F9FF900280E0FBB2
:104F13003395E0FAEF2BFFEE3AFE900279E0FBA324
:104F2300E0FAA3E0F98F828E83ED1285B290027FBF
:104F3300E014F0024EA4E490027FF090027EE0FFC2
:104F4300A3E0FEC3EF6480F8EE648098503BEEFF6D
:104F53003395E0FEEF7803C333CE33CED8F9FF9019
:104F63000280E0FD3395E0FCEF2DFFEE3CFE900266
:104F730079E0FBA3E0FAA3E0F98F828E83E4128544
:104F8300B290027FE004F080B2900280E004F0E08F
:104F930064086003024E9E22E4900280F0E49002D3
:104FA3007FF090027EE0FFC374089FFEA3E0FDC381
:104FB300EE6480F8ED648098507CEF3395E0FEED6D
:104FC3003395E0FCED2FFFEC3EFEEF7803C333CEC9
:104FD30033CED8F9FF900280E0FD3395E0FCEF2D4E
:104FE300FFEE3CFE900279E0FBA3E0FAA3E0F98F29
:104FF300828E83128573FD90027FE0FF3395E0FE7E
:10500300EF7803C333CE33CED8F9FF900280E0FBB1
:105013003395E0FAEF2BFFEE3AFE900279E0FBA323
:10502300E0FAA3E0F98F828E83ED1285B290027FBE
:10503300E004F0024FA590027EE0FFC374089FA333
:10504300F090027FE0FFC364809488503AEF339579
:10505300E0FEEF7803C333CE33CED8F9FF9002805E
:10506300E0FD3395E0FCEF2DFFEE3CFE900279E08E
:10507300FBA3E0FAA3E0F98F828E83E41285B2905A
:10508300027FE004F080BA900280E004F0E064085C
:055093006003024FA0C4
:0150980022F5
:0E92DA00900230EBF0A3EAF0A3E9F0A3EDF070
:1092E80078357C027D017BFF7A2679427E007F40BB
:1092F800128534E4900278F0900233E0FF9002780F
:10930800E0FEC3EF6480F8EE648098400302947531
:10931800E4900275F0E4900277F0E4900276F09021
:109328000275E0FF3395E0FEEF7803C333CE33CE0A
:10933800D8F9FDAC06900278E0FF3395E0FEEF78AF
:1093480006C333CE33CED8F92DFFEE3CFE9002771C
:10935800E0FD3395E0FCEF2DFFEE3CFE900230E09F
:10936800FBA3E0FAA3E0F98F828E83128573FF9046
:109378000276E0FE7401A806088002C333D8FC5FB9
:10938800FF6044900277E0FE900275E075F008A453
:109398002EF582E435F0F583E5822435F582E58300
:1093A8003402F583E04FF0E57E6401602B7B017A9F
:1093B800027935900234E0FD12869212C942E52BFB
:1093C80064017003029475900276E004F0E0C364CF
:1093D8008094885003029327900277E004F0E0C35A
:1093E800648094885003029322900275E004F0E0B0
:1093F800C364809488500302931DE57E6401606D08
:109408007B017A0279357D3C12869212C942E4903A
:109418000276F0900276E0FFC3648094C0503EEF7D
:109428003395E0FE74352FF58274023EF583E060D3
:109438002474352FF58274023EF583E4F0E57E64EA
:1094480001601A7B017A027935900234E014FD122A
:10945800869212C942900276E004F080B67F1E7EA2
:0D9468000012CAB6900278E004F0029300F2
:0194750022D4
:0B8A8200900230EFF0A3EDF0A3EBF04A
:108A8D0078337C027D017BFF7A2679827E007F40E0
:108A9D00128534900230E0FF7401A807088002C3EC
:108AAD0033D8FCFF900231E0FD3395E0FC746B2D63
:108ABD00F58274023CF583EFF0E57E6401700302EC
:108ACD008C4A7B017A027933900232E0FD12869254
:108ADD0012C942E52B64017003028C4A9002737433
:108AED0006F0900273E0FFC3648094805003028B04
:108AFD0086900231E0FE75F008EFA42EF582E43584
:108B0D00F0F583E582243BF582E5833402F583E0BD
:108B1D00FD75F008EFA42EF582E435F0F583E582BE
:108B2D002433F582E5833402F583EDF0900231E0D4
:108B3D00FE75F008EFA42EF582E435F0F583E5829D
:108B4D00243BF582E5833402F583E4F0E57E640190
:108B5D0060277B017A027933900232E0FD12869212
:108B6D007F197E0012C946E52B64017003028C4A01
:108B7D00900273E014F0028AEFE4900274F0E49036
:108B8D000273F0900273E0FDC364809488507BA360
:108B9D00E0FF3395E0FEEFC4F8540FC868FFEEC454
:108BAD0054F048FE900231E0FB3395E0FAC3EF9BA1
:108BBD00FFEE9AFEEDFB3395E0FAEF2BFFEE3AFE5A
:108BCD00EF25E0FFEE33FE74D02FF58274073EF5EE
:108BDD0083E493FE740193FF900230E0FCC37407AD
:108BED009CFCEFA804088005CEC313CE13D8F9FF63
:108BFD00ED3395E0FC74332DF58274023CF583EF73
:108C0D00F0900273E004F0028B90E57E6401602D1C
:108C1D007B017A027933900232E004FD1286927F55
:108C2D00197E0012C946E52B64016011900274E0B3
:0D8C3D0004F0E0C3648094875003028B8B29
:018C4A002207
:0B70A800900230EFF0A3EDF0A3EBF03E
:1070B30078357C027D017BFF7A2679C27E007F4092
:1070C300128534900230E0FF7401A807088002C3E0
:1070D30033D8FCFF900231E0FD3395E0FC746D2D55
:1070E300F58274023CF583EFF0E57E6401700302E0
:1070F30073507B017A027935900234E0FD12869257
:1071030012C942E52B640170030273509002757437
:1071130006F07B017A027935E490027DF0A304F056
:107123007D02124BE8900275E0B40526900232E02E
:10713300FF7401A807088002C333D8FCFF90023311
:10714300E0FD3395E0FC746D2DF58274023CF5830C
:10715300EFF0E57E6401602C7B017A0279359002C1
:1071630034E0FD1286927F197E0012C946E52B6436
:10717300017003027350900275E014F0E0C3648061
:107183009480508EE4900276F0900276E0FFC36420
:107193008094894003027350C3EF64809482501635
:1071A3007B017A027935E490027DF0A304F07D023D
:1071B300124BE8027245E4900275F0900275E0FD0F
:1071C300C364809488507BA3E0FF3395E0FEEFC453
:1071D300F8540FC868FFEEC454F048FE900233E041
:1071E300FB3395E0FAC3EF9BFFEE9AFEEDFB33957D
:1071F300E0FAEF2BFFEE3AFEEF25E0FFEE33FE74ED
:10720300902FF58274073EF583E493FE740193FF98
:10721300900232E0FCC374079CFCEFA804088005CD
:10722300CEC313CE13D8F9FFED3395E0FC74352D9F
:10723300F58274023CF583EFF0900275E004F002EE
:1072430071BE900276E0C36480948740030272F0BB
:10725300E4900275F0900275E0FFC3648094884067
:10726300030272F0EF3395E0FE74352FF58274025A
:107273003EF583C083C082E0FD900276E0FF339544
:10728300E0FEEFC4F8540FC868FFEEC454F048FEA4
:10729300900231E0FB3395E0FAC3EF9BFFEE9AFED9
:1072A300900275E0FB3395E0FAEF2BFFEE3AFEEF29
:1072B30025E0FFEE33FE74D02FF58274073EF5838D
:1072C300E493FE740193FF900230E0FCC374079CC7
:1072D300FCEFA804088005CEC313CE13D8F94DD014
:1072E30082D083F0900275E004F002725890027627
:1072F300E0B4012F900233E0FF3395E0FE74352FA5
:10730300F58274023EF583C083C082E0FF900232AF
:10731300E0FE7401A806088002C333D8FC4FD08274
:10732300D083F0E57E640160247B017A0279359095
:107333000234E0FD1286927F197E0012C946E52BC6
:0D73430064016009900276E004F002718C94
:01735000221A
:0B59CF00900230EFF0A3EDF0A3EBF02E
:1059DA0078377C027D017BFF7A2779027E007F403F
:1059EA00128534900230E0FF7401A807088002C3D0
:1059FA0033D8FCFF900231E0FD3395E0FC746F2D43
:105A0A00F58274023CF583EFF0E57E6401700302CF
:105A1A005DAB7B017A027937900236E0FD128692FD
:105A2A007F197E0012C946E52B64017003025DAB43
:105A3A009002777406F07B017A027937E490027D4E
:105A4A00F0A304F07D02124BE8900277E0FFB40560
:105A5A0026900232E0FE7401A806088002C333D8F9
:105A6A00FCFE900233E0FD3395E0FC746F2DF58265
:105A7A0074023CF583EEF0EFB40326900234E0FFA3
:105A8A007401A807088002C333D8FCFF900235E0EE
:105A9A00FD3395E0FC746F2DF58274023CF583EFBB
:105AAA00F0E57E6401602F7B017A02793790023635
:105ABA00E0FD1286927F197E0012C946E52B640129
:105ACA007003025DAB900277E014F0E0C364809447
:105ADA00804003025A40E4900278F0900278E0FF96
:105AEA00C36480948B4003025DABC3EF64809484EB
:105AFA0050137B017A027937E490027DF0A304F017
:105B0A007D02124BE8900278E0FFC36480948B40D8
:105B1A0003025BB5C3EF648094845003025BB5E46F
:105B2A00900277F0900277E0FDC364809488507BFE
:105B3A00A3E0FF3395E0FEEFC4F8540FC868FFEE08
:105B4A00C454F048FE900235E0FB3395E0FAC3EF07
:105B5A009BFFEE9AFEEDFB3395E0FAEF2BFFEE3A50
:105B6A00FEEF25E0FFEE33FE74502FF58274073EF8
:105B7A00F583E493FE740193FF900234E0FCC3744E
:105B8A00079CFCEFA804088005CEC313CE13D8F9EE
:105B9A00FFED3395E0FC74372DF58274023CF583F2
:105BAA00EFF0900277E004F0025B2E900278E0FFBB
:105BBA00C3648094894003025C6CC3EF648094825E
:105BCA005003025C6CE4900277F0900277E0FFC326
:105BDA00648094884003025C6CEF3395E0FE74376E
:105BEA002FF58274023EF583C083C082E0FD9002E5
:105BFA0078E0FF3395E0FEEFC4F8540FC868FFEE73
:105C0A00C454F048FE900233E0FB3395E0FAC3EF48
:105C1A009BFFEE9AFE900277E0FB3395E0FAEF2BBA
:105C2A00FFEE3AFEEF25E0FFEE33FE74902FF58289
:105C3A0074073EF583E493FE740193FF900232E009
:105C4A00FCC374079CFCEFA804088005CEC313CEDE
:105C5A0013D8F94DD082D083F0900277E004F00295
:105C6A005BD4900278E0C3648094874003025D1796
:105C7A00E4900277F0900277E0FFC3648094884052
:105C8A0003025D17EF3395E0FE74372FF582740235
:105C9A003EF583C083C082E0FD900278E0FF339531
:105CAA00E0FEEFC4F8540FC868FFEEC454F048FE93
:105CBA00900231E0FB3395E0FAC3EF9BFFEE9AFEC8
:105CCA00900277E0FB3395E0FAEF2BFFEE3AFEEF16
:105CDA0025E0FFEE33FE74D02FF58274073EF5837C
:105CEA00E493FE740193FF900230E0FCC374079CB6
:105CFA00FCEFA804088005CEC313CE13D8F94DD003
:105D0A0082D083F0900277E004F0025C7F90027800
:105D1A00E0FFB4012F900233E0FD3395E0FC7437C5
:105D2A002DF58274023CF583C083C082E0FE9002A6
:105D3A0032E0FD7401A805088002C333D8FC4ED0B6
:105D4A0082D083F0EFB4032F900235E0FF3395E061
:105D5A00FE74372FF58274023EF583C083C082E059
:105D6A00FF900234E0FE7401A806088002C333D80B
:105D7A00FC4FD082D083F0E57E640160247B017AF7
:105D8A00027937900236E0FD1286927F197E001260
:105D9A00C946E52B64016009900278E004F0025AD2
:015DAA00E513
:015DAB0022D5
:0E735100900231EBF0A3EAF0A3E9F0A3EDF017
:10735F0078397C027D017BFF7A2779427E007F405E
:10736F00128534E4900236F0900236E0FFC3648059
:10737F009488501AEF3395E0FE74712FF5827402E2
:10738F003EF58374FFF0900236E004F080DAE4906B
:10739F000236F0E4900237F0900237E0FFC36480CA
:1073AF009488400302754C900231E0FBA3E0FAA3EE
:1073BF00E0F9900236E0FD3395E08D82F58312857A
:1073CF0073FE7401A807088002C333D8FC5E9002D5
:1073DF0035F070030275169002387406F09002387B
:1073EF00E0FFD36480948050030274B8900234E0BD
:1073FF00B40105EF64066041900238E0FF3395E079
:10740F00FEEF7803C333CE33CED8F9FF900236E0C8
:10741F00FD3395E0FCC3EF9DFFEE9CFE74482FF506
:10742F008274023EF583C083C082E0FF900235E094
:10743F00F4FEEF5ED082D083F0900238E0FF3395F8
:10744F00E0FEEF7803C333CE33CED8F9FF90023688
:10745F00E0FD3395E0FCC3EF9DFFEE9CFE74402FE3
:10746F00F58274023EF583C083C082E0FF9002373D
:10747F00E0FE7401A806088002C333D8FC4FD08207
:10748F00D083F0E52B640170030275E6E57E64019D
:10749F0060177B017A0279397D0112869212C942F7
:1074AF00900238E014F00273EC900236E0FF33954F
:1074BF00E0FEC3740F9FFDE49EFC74392DF58274BA
:1074CF00023CF583E4F0C374079FFFE49EFE74391A
:1074DF002FF58274023EF583C083C082E0FF9002D5
:1074EF0035E0FEEF4ED082D083F0E52B64017003C0
:1074FF000275E6E57E640160447B017A0279397D8D
:10750F000112869212C942900236E0FF3395E0FED7
:10751F00C374079FFFE49EFE74392FF58274023EF9
:10752F00F583C083C082E0FF900235E0FEEF4ED0BE
:10753F0082D083F0900237E004F00273A7900236F6
:10754F00E004F0E0C36480948850030273A2E57EE8
:10755F00640170030275E6E52B6401607A7B017AA2
:10756F000279397D2812869212C942E4900239F0CD
:10757F009002377407F09002367407F0900236E0ED
:10758F00FFD3648094804025EF3395E0FE74382F4D
:10759F00F58274023EF583E0FD74392FF582740293
:1075AF003EF583EDF0900236E014F080CFE57E6477
:1075BF00016022E52B6401601E7B017A0279397D1F
:1075CF000512869212C942900237E014F0E0D3649C
:0775DF0080948050A1C2045A
:0175E6002282
:05C1AA00900230EFF0EF
:10C1AF0078317C027D017BFF7A2779827E007F4088
:10C1BF00128534E4900271F0900271E0FFC3648045
:10C1CF0094C05037EF3395E0FE74312FF58274022F
:10C1DF003EF5837480F0E57E6401601F7B017A0277
:10C1EF007931900230E0FD12869212C942E52B643C
:0BC1FF00016008900271E004F080BDB8
:01C20A002211
:087B0000900230EFF0A3EDF05C
:107B080078347C027D017BFF7A2779C27E007F4032
:107B1800128534E4900232F0900232E0FFC36480B0
:107B280094C0501AEF3395E0FE74342FF582740236
:107B38003EF5837480F0900232E004F080DAE57E4E
:107B480064017003027D6C7B017A02793490023102
:107B5800E0FD12869212C942E52B64017003027D92
:107B68006C900230E0FF14F0EF7003027D6AE4903D
:107B78000232F0900232E0FFC36480949C50E2C36A
:107B8800EF648094875079E4A3F0900233E0FFC358
:107B9800648094884003027D41EFFD3395E0FCED5D
:107BA800AE047803C333CE33CED8F92434F58274C7
:107BB800023EF583C083C082E0FF900232E0FB04FE
:107BC800FE7480A806088002C313D8FC4FD082D068
:107BD80083F0EDAE047803C333CE33CED8F9FFEB90
:107BE800FD3395E0FCC3EF9DFFEE9CFE743B2FF543
:107BF8008274023EF583E4F0900233E004F0808A58
:107C0800900232E0FDC36480948E5058E4A3F09053
:107C18000233E0FFC3648094884003027D419002F0
:107C280032E0FE75F008EFA42EF582E435F0F58316
:107C3800E582242EF582E5833402F5837401F0EFA2
:107C48003395E0FEEF7803C333CE33CED8F924342E
:107C5800F58274023EF583E0FFC313F0900233E02F
:107C680004F080ABC3ED64809495506FE4900233C8
:107C7800F0900233E0FFC3648094884003027D41A2
:107C8800900232E0FD75F008EFA42DF582E435F09E
:107C9800F583E5822426F582E5833402F583E4F052
:107CA800EF3395E0FEEF7803C333CE33CED8F92413
:107CB8003BF58274023EF583C083C082E0FFED2469
:107CC800F3FE7401A806088002C333D8FC4FD082A3
:107CD800D083F0900233E004F08096900232E0C343
:107CE8006480949C5053E4A3F0900233E0FFC36493
:107CF8008094885044EF3395E0FEEF7803C333CE89
:107D080033CED8F9FF900232E0FD3395E0FCC3EFA3
:107D18009DFDEE9CFC744F2DF58274023CF5837436
:107D280080F0743B2FF58274023EF583E0FF25E076
:107D3800F0900233E004F080B0E52B64016025E5A3
:107D48007E64017003027B697B017A0279349002B8
:107D580031E0FD12869212C942900232E004F0022C
:047D68007B7BC2045B
:017D6C0022F4
:0EA19100900230EBF0A3EAF0A3E9F0A3EDF0AA
:10A19F0078387C027D017BFF7A2879027E007F4030
:10A1AF00128534E4900237F0900233E0FF900237CB
:10A1BF00E0FEC3EF6480F8EE648098400302A2CD06
:10A1CF00E4900235F090027874FFF0E4900236F0DC
:10A1DF00900236E0FDC3648094C05074A3E0FF3357
:10A1EF0095E0FEEF7806C333CE33CED8F9FFED33CB
:10A1FF0095E0FCEF2DFFEE3CFE900230E0FBA3E07C
:10A20F00FAA3E0F98F828E83128573FF900235E0F7
:10A21F00FE7480A806088002C313D8FC4FFFC374D6
:10A22F00079EFE900278E0FDA806088002C333D88F
:10A23F00FC5FFF900236E0FD3395E0FC74382DF59E
:10A24F008274023CF583EFF0900236E004F08080D8
:10A25F00E57E64016028E52B640160627B017A0270
:10A26F007938900234E0FD12869212C9429002357D
:10A27F00E004F0E0C364809488500302A1D4E57E2B
:10A28F006401603AE52B64016034900237E0FF33DC
:10A29F0095E0FEEF7806C333CE33CED8F9FF9002A8
:10A2AF0030E0FBA3E0FAA3E02FF9EA3EFA7D321289
:0EA2BF00869212C942900237E004F002A1B765
:01A2CD00226E
:05913B00900230EFF08E
:1091400078337C027D017BFF7A2879427E007F4064
:10915000128534E4900231F0900231E0FFC3648064
:1091600094C0501AEF3395E0FE74332FF5827402E9
:109170003EF5837480F0900231E004F080DAE57E01
:10918000640170030292D9E52B640170030292D945
:109190007B017A0279337D0312869212C942E490F0
:1091A0000231F0E4900232F0900232E0FFC36480BA
:1091B00094885074900231E0FDC364809487502AF3
:1091C000EF3395E0FEEF7803C333CE33CED8F9FF0B
:1091D000ED3395E0FCC3EF9DFFEE9CFE743A2FF556
:1091E0008274023EF583E0547FF0900231E0FFA3E9
:1091F000E075F008A42FF582E435F0F583E58224CC
:1092000033F582E5833402F583C083C082E0FE74C7
:1092100080A807088002C313D8FC4ED082D083F008
:10922000900232E004F08080E57E6401602BE52B43
:10923000640170030292D97B017A02793390023083
:10924000E0FD12869212C942900231E004F0E0C3C0
:109250006480948850030291A3E4900231F0E4907A
:109260000232F0E4FF900231E075F008A42FF5829D
:10927000E435F0F583E5822402F582E5833409F5CF
:1092800083E493FE900232E075F008A42FF582E4A7
:1092900035F0F583E5822433F582E5833402F583E6
:1092A000EEF00FEFB408BE900232E004F0E0B40834
:1092B000B2E57E64016022E52B6401601C7B017ACB
:1092C0000279337D0312869212C942900231E00482
:0992D000F0E0C36480948640853F
:0192D9002272
:0BAD6200900230EFF0A3EDF0A3EBF047
:10AD6D0078337C027D017BFF7A2879827E007F40DB
:10AD7D00128534900231E0FF14F0EF700302AE7CC7
:10AD8D00E4900273F0900273E0C36480948E50E3FC
:10AD9D00E4F9E4FDD3ED648094814050ED6480943A
:10ADAD00865049E9648094814042E96480948650DC
:10ADBD003B900230E064016033900273E075F0085F
:10ADCD00A42DF582E435F0F583E58224C2F582E504
:10ADDD00833408F583E49354C3FCE9FF3395E0FE17
:10ADED00EF7803C333CE33CED8F9802F900273E0C2
:10ADFD0075F008A42DF582E435F0F583E58224C2C3
:10AE0D00F582E5833408F583E493FCE9FF3395E09F
:10AE1D00FEEF7803C333CE33CED8F9FFEDFB339578
:10AE2D00E0FAEF2BFFEE3AFE74332FF58274023EFB
:10AE3D00F583ECF00DED6408600302ADA109E96442
:10AE4D0008600302AD9FE52B64016023E57E64017C
:10AE5D00700302AD807B017A027933900232E0FDFE
:0FAE6D0012869212C942900273E004F002AD9275
:01AE7C0022B3
:08B89100900230EFF0A3EDF08E
:10B8990078327C027D017BFF7A2879C27E007F4065
:10B8A900128534900230E0FF14F0EF700302B945BD
:10B8B900E4900272F0900272E0C3648094B850E39D
:10B8C900E4FDE4FC900272E0FF3395E0FEEF7803BB
:10B8D900C333CE33CED8F9FFECFB3395E0FAEF2B27
:10B8E900FFEE3AFE74322FF58274093EF583E49334
:10B8F900FF75F008EDA42CF582E435F0F583E582B7
:10B909002432F582E5833402F583EFF00CECB408B8
:10B91900B30DEDB408ACE57E64016087E52B6401E5
:10B92900601A7B017A027932900231E0FD12869227
:0CB9390012C942900272E004F002B8BE95
:01B9450022DF
:0B34BC00900230EFF0A3EDF0A3EBF066
:1034C70078337C027D017BFF7A2979027E007F4079
:1034D700128534E4900274F0E4900273F090027362
:1034E700E0FDFF3395E0FE74C22FF58274083EF5C8
:1034F70083E493FC900274E0FF3395E0FEEF7803DA
:10350700C333CE33CED8F9FFEDFB3395E0FAEF2B7B
:10351700FFEE3AFE74332FF58274023EF583ECF02A
:10352700900273E004F0E0B408B3900274E004F092
:10353700E0B408A4E57E64017003023AE7E52B6472
:10354700017003023AE712868712C942900230E0FF
:103557006401600302368290027404F0E4900273FF
:10356700F0900274E0FF900273E0FEC3EF6480F80E
:10357700EE6480985068E4900275F0900275E0FD63
:10358700900273E0FFA3E0C39F75F008A42DF582B6
:10359700E435F0F583E58224C2F582E5833408F546
:1035A70083E493FCEF3395E0FEEF7803C333CE3328
:1035B700CED8F9FFEDFB3395E0FAEF2BFFEE3AFE9D
:1035C70074332FF58274023EF583ECF0900275E0B8
:1035D70004F0E0B408A5900273E004F08083E57E70
:1035E70064016020E52B64017003023AE7128687C5
:1035F70012C942900274E004F0E0C36480948850DA
:10360700030235639002737408F0124BD8E49002FA
:1036170074F0900274E0FF900273E075F008A42F35
:10362700F582E435F0F583E58224C2F582E583343B
:1036370008F583E493FEEFFD3395E0FC74332DF535
:103647008274023CF583EEF0900274E004F0E0B47B
:1036570008C0E57E640170030237AAE52B64017098
:1036670003023AE712868712C942900273E004F018
:10367700E0C36480948E40920237AA90027474016A
:10368700F0E4900273F0900274E0FF900273E0FEA2
:10369700C3EF6480F8EE6480985071E4900275F08F
:1036A700900275E0FD900274E0FFC3740E9FFF90D7
:1036B7000273E0FE2F75F008A42DF582E435F0F5CE
:1036C70083E58224C2F582E5833408F583E493FC1D
:1036D700EEFF3395E0FEEF7803C333CE33CED8F950
:1036E700FFEDFB3395E0FAEF2BFFEE3AFE74332F35
:1036F700F58274023EF583ECF0900275E004F0E089
:10370700B4089D900273E004F002368DE57E6401F3
:103717006020E52B64017003023AE712868712C91D
:1037270042900274E004F0E0C3648094885003027E
:1037370036889002737407F0124BD8E4900274F045
:10374700900274E0FF900273E075F008A42FF582F1
:10375700E435F0F583E58224C2F582E5833408F584
:1037670083E493FEEFFD3395E0FC74332DF582740B
:10377700023CF583EEF0900274E004F0E0B408C078
:10378700E57E6401601DE52B64017003023AE712D0
:10379700868712C942900273E014F0E0C3648094F4
:1037A700805095900231E0FF14F0EF70030238B1BA
:1037B700900230E064017075900273F0900273E03C
:1037C700C36480948E50DC124BD8E4900274F0905E
:1037D7000274E0FF900273E075F008A42FF582E40D
:1037E70035F0F583E58224C2F582E5833408F58355
:1037F700E493FEEFFD3395E0FC74332DF5827402FC
:103807003CF583EEF0900274E004F0E0B408C0E504
:103817007E6401608EE52B64017003023AE712862D
:103827008712C942900273E004F00237C390027313
:10383700740DF0900273E0C36480948050030237E4
:10384700AA124BD8E4900274F0900274E0FF900241
:1038570073E075F008A42FF582E435F0F583E5826F
:1038670024C2F582E5833408F583E493FEEFFD3344
:1038770095E0FC74332DF58274023CF583EEF090ED
:103887000274E004F0E0B408C0E57E64017003024E
:1038970037AAE52B64017003023AE712868712C93B
:1038A70042900273E014F002383A900230E064016B
:1038B70060030239D4900274F09002737407F09099
:1038C7000274E0FF900273E0FEC3EF6480F8EE64D9
:1038D700809850030239AAD3EF6480F8EE64809889
:1038E7004066E4900275F0900275E0FD900273E087
:1038F700FFC3740E9FFEA3E02E75F008A42DF5827A
:10390700E435F0F583E58224C2F582E5833408F5D2
:1039170083E493FCEF3395E0FEEF7803C333CE33B4
:10392700CED8F9FFEDFB3395E0FAEF2BFFEE3AFE29
:1039370074332FF58274023EF583ECF0900275E044
:1039470004F0E0B408A18052E4900275F09002758B
:10395700E0FDFF3395E0FE74C22FF58274083EF553
:1039670083E493FC900273E0FF3395E0FEEF780366
:10397700C333CE33CED8F9FFEDFB3395E0FAEF2B07
:10398700FFEE3AFE74332FF58274023EF583ECF0B6
:10399700900275E004F0E0B408B3900273E014F00D
:1039A7000238C6E57E64017003023AE7E52B64013D
:1039B7007003023AE712868712C942900274E00444
:1039C700F0E0C36480948750030238C022900274E9
:1039D7007401F09002737407F0900274E0FF900294
:1039E70073E0FEC3EF6480F8EE6480985003023AF8
:1039F700C4D3EF6480F8EE6480984066E490027563
:103A0700F0900275E0FD900274E0FF900273E0FE13
:103A1700C39F75F008A42DF582E435F0F583E582A0
:103A270024C2F582E5833408F583E493FCEEFF3383
:103A370095E0FEEF7803C333CE33CED8F9FFEDFB25
:103A47003395E0FAEF2BFFEE3AFE74332FF58274CD
:103A5700023EF583ECF0900275E004F0E0B408A1B3
:103A67008052E4900275F0900275E0FDFF3395E017
:103A7700FE74C22FF58274083EF583E493FC90022E
:103A870073E0FF3395E0FEEF7803C333CE33CED830
:103A9700F9FFEDFB3395E0FAEF2BFFEE3AFE7433B7
:103AA7002FF58274023EF583ECF0900275E004F086
:103AB700E0B408B3900273E014F00239E0E57E64E5
:103AC70001601DE52B6401601712868712C94290B9
:103AD7000274E004F0E0C36480948750030239DA8B
:013AE70022BC
:08615C00900230EFF0A3EDF01A
:1061640078327C027D017BFF7A2979427E007F4070
:10617400128534E4900273F0E4900272F09002729B
:10618400E0FDFF3395E0FE74C22FF58274083EF5FE
:1061940083E493FC900273E0FF3395E0FEEF780311
:1061A400C333CE33CED8F9FFEDFB3395E0FAEF2BB2
:1061B400FFEE3AFE74322FF58274023EF583ECF062
:1061C400900272E004F0E0B408B3900273E004F0CB
:1061D400E0B408A4E57E640170030264C9E52B649D
:1061E4000170030264C97B017A027932900231E0C2
:1061F400FD12869212C9429002737401F0E4900277
:1062040072F0900273E0FF900272E0FEC3EF6480CC
:10621400F8EE6480985071E4900274F0900274E097
:10622400FD900273E0FFC3740E9FFF900272E0FEC4
:106234002F75F008A42DF582E435F0F583E582246A
:10624400C2F582E5833408F583E493FCEEFF3395CD
:10625400E0FEEF7803C333CE33CED8F9FFEDFB3342
:1062640095E0FAEF2BFFEE3AFE74322FF5827402BA
:106274003EF583ECF0900274E004F0E0B4089D90E5
:106284000272E004F0026206E57E6401602BE52BF5
:10629400640170030264C97B017A0279329002318D
:1062A400E0FD12869212C942900273E004F0E0C34A
:1062B400648094885003026201900230E0FF14F07D
:1062C400EF70030264C99002737401F07A027932A8
:1062D400124BDCE4900272F0900273E0FF900272C1
:1062E400E0FEC3EF6480F8EE64809840030263B379
:1062F400E4900274F0900274E0FDC36480948840DA
:10630400030263AA900272E060047F0180027F00AE
:10631400900273E0FE640760047C0180027C00EC60
:106324004F6058900272E0FCFB3395E0FAEEFF33C5
:1063340095E0FEC3EF9BFFEE9AFEEF7803C333CEE6
:1063440033CED8F9FFEDFB3395E0FAEF2BFFEE3AAD
:10635400FE74FA2FF58274083EF583E493FF75F01A
:1063640008ECA42DF582E435F0F583E5822432F5BA
:1063740082E5833402F583EFF08022900274E0FF1B
:106384003395E0FE74C22FF58274083EF583E493DE
:10639400FD74322FF58274023EF583EDF0900274A1
:1063A400E004F00262F9900272E004F00262DCE5BB
